S01D00002E2F44656275672F67726170686963646973706C61792E73313990
S315200000000248854600F05FFAFEE7C04600C00120A0
S3152000001080B500AF064B1B68054B00221A60044BC7
S315200000201A68034B03490A431A60C046BD4680BD81
S31520000030001002405555555580B500AF094B00229A
S315200000401A60094B29221A60084B00221A60054BB8
S3152000005005221A60C046034B00221A60C046BD46E0
S3152000006080BDC04610E000E014E000E018E000E0AB
S3152000007080B500AF094B00221A60094B53221A6043
S31520000080084B00221A60054B05221A60C046034B16
S3152000009000221A60C046BD4680BDC04610E000E082
S315200000A014E000E018E000E080B584B000AF78608E
S315200000B07B68FA229100180000F01AFA03007B6090
S315200000C07B6801337B600BE00023FB6002E0FB686A
S315200000D00133FB60FB68032BF9DD7B68013B7B600A
S315200000E07B68002BF0D1C046C046BD4604B080BD1B
S315200000F080B582B000AF78607B68FA229100180044
S3152000010000F0F6F903007B607B6801337B6007E033
S31520000110FA239B001800FFF7C7FF7B68013B7B6033
S315200001207B68002BF4D1C046C046BD4602B080BDD8
S3152000013080B584B000AF0200FB1D1A700F4A0F2055
S315200001403B1812781A703B183A18127804218A4301
S315200001501A70FB1D1B785BB2042293435AB23B18DC
S315200001601B785BB213435AB23B181A70034A3B18EA
S315200001701B781370C046BD4604B080BD14100240E3
S3152000018080B584B000AF0200FB1D1A700F4A0F2005
S315200001903B1812781A703B183A18127804218A43B1
S315200001A01A70FB1D1B785BB2DB435BB23A181278E0
S315200001B052B213405AB23B181A70044A3B181B78A5
S315200001C01370C046BD4604B080BDC0461410024020
S315200001D080B582B000AF78607B68182B21D07B6811
S315200001E0182B22DC7B68102B14D07B68102B1CDC90
S315200001F07B68002B03D07B68082B04D015E01820E1
S31520000200FFF7BEFF11E01020FFF7BAFF0820FFF727
S315200002108FFF0AE00820FFF7B3FF1020FFF788FFC3
S3152000022003E01820FFF784FFC046C046BD4602B053
S3152000023080BD80B500AF4020FFF77AFF0F4B104AF4
S315200002401A600120FFF79CFF0220FFF771FF402074
S31520000250FFF76EFF4020FFF793FF0A4B1B78DBB2B8
S315200002605BB2002B00DAF2E7C0464020FFF760FFC2
S31520000270024B054A1A60C046BD4680BD00100240AA
S3152000028055550000141002405555555580B584B07B
S3152000029000AF0200FB1D1A704020FFF771FF1B4BB9
S315200002A01B4A1A600120FFF743FF0220FFF740FF99
S315200002B0FB1D1B781800FFF78BFF4020FFF738FF48
S315200002C0144A0F23FB1812781A704020FFF758FFA4
S315200002D00E4B114A1A60FB1D1B78082B05D10820EE
S315200002E0FFF776FFFFF7A5FF08E0FB1D1B78102B15
S315200002F004D11020FFF76CFFFFF79BFF0F23FB189D
S315200003001B781800BD4604B080BDC04600100240D0
S3152000031055550000151002405555555580B582B0EB
S3152000032000AF0200FB1D1A70BB1D0A1C1A70184A6A
S31520000330FB1D1B781370BB1D1B781800FFF748FFA9
S315200003404020FFF7F5FE4020FFF71AFFBB1D1B7864
S315200003500822134005D00820FFF73AFFFFF769FF70
S3152000036009E0BB1D1B781022134004D01020FFF794
S315200003702FFFFFF75EFF064B00221A704020FFF783
S31520000380D7FE0020FFF724FFC046BD4602B080BD41
S315200003901510024080B582B000AF0200FB1D1A7016
S315200003A0BB1D0A1C1A704020FFF7EAFEBB1D1B78F6
S315200003B01800FFF70DFF0120FFF7E2FE0220FFF7EE
S315200003C0DFFEBB1D1A78FB1D1B7811001800FFF7F6
S315200003D0A5FFC046BD4602B080BD80B582B000AF45
S315200003E00200FB1D1A70BB1D0A1C1A704020FFF765
S315200003F0C7FEBB1D1B781800FFF7EAFE0120FFF79A
S3152000040097FE0220FFF7BCFEBB1D1A78FB1D1B784A
S3152000041011001800FFF782FFC046BD4602B080BD1E
S3152000042080B582B000AF0200FB1D1A70FB1D1B7841
S315200004301800FFF72BFFFB1D1B781800FFF726FF80
S3152000044003001800BD4602B080BD80B500AF402035
S31520000450FFF76EFE0A20FFF727FE0820FFF790FE23
S315200004601020FFF78DFE2020FFF78AFE4020FFF7A1
S3152000047087FE1E20FFF73CFE2020FFF759FE18219D
S315200004803E20FFF787FF18213F20FFF783FF182123
S31520000490C020FFF77FFF18214020FFF77BFF1821A0
S315200004A0B820FFF777FF0020FFF792FEC046BD4633
S315200004B080BD80B582B000AF00237B60C046C046B9
S315200004C0BD4602B080BD80B500AFFFF7A1FDFFF7A6
S315200004D0BCFF10214A20FFF75DFF1021B920FFF74E
S315200004E059FF1021FF20FFF778FFC046BD4680BD8B
S315200004F0002243088B4274D303098B425FD3030A3D
S315200005008B4244D3030B8B4228D3030C8B420DD34F
S31520000510FF22090212BA030C8B4202D312120902DD
S3152000052065D0030B8B4219D300E0090AC30B8B421B
S3152000053001D3CB03C01A5241830B8B4201D38B03C9
S31520000540C01A5241430B8B4201D34B03C01A52416E
S31520000550030B8B4201D30B03C01A5241C30A8B42B1
S3152000056001D3CB02C01A5241830A8B4201D38B029C
S31520000570C01A5241430A8B4201D34B02C01A524140
S31520000580030A8B4201D30B02C01A5241CDD2C309B2
S315200005908B4201D3CB01C01A524183098B4201D32E
S315200005A08B01C01A524143098B4201D34B01C01A19
S315200005B0524103098B4201D30B01C01A5241C30891
S315200005C08B4201D3CB00C01A524183088B4201D300
S315200005D08B00C01A524143088B4201D34B00C01AEC
S315200005E05241411A00D20146524110467047FFE758
S315200005F001B5002000F006F802BDC0460029F7D05C
S30D2000060076E770477047C046FB
S70520000000DA
