S01A00002E2F44656275672F7379737469636B5F6972712E733139B2
S315200000000248854600F072F8FEE7C04600C001208F
S3152000001080B500AF0A4B00221A600A4B1B685A1E95
S31520000020084B1A60074B1B68002B02DD00F00EF808
S3152000003002E0054B01221A60C046BD4680BDC0467F
S3152000004010E000E04C0100204801002080B500AF00
S31520000050084B00221A60084B00221A60074BA72281
S315200000601A60074B00221A60034B07221A60C0460B
S31520000070BD4680BD4801002010E000E014E000E00D
S3152000008018E000E080B582B000AF78607B68002B76
S3152000009008D07A68054B1A60054B00221A60FFF7D4
S315200000A0D5FF00E0C046BD4602B080BD4C01002011
S315200000B04801002080B500AF084B1B68074B002283
S315200000C01A60064B1A68054B05490A431A60054B08
S315200000D0054A1A60C046BD4680BDC046000C024097
S315200000E0555555553CC001201100002080B582B0E1
S315200000F000AFFFF7DFFF114B00221A706420FFF7D5
S31520000100C1FF0E4BFF221A70FB1D00221A700C4BEA
S315200001101B68002B09D10B4AFB1D1B781370FB1D96
S315200001201A78FB1D01321A70F1E7C046034B0022F4
S315200001301A70C046BD4602B080BDC046140C0240AF
S3152000014048010020150C02400000000000000000BD
S70520000000DA
