S01F00002E2F44656275672F666C6970666C6F705F6972715F61636B2E733139CD
S315200000000248854600F0D0F8FEE7C04600C0012031
S3152000001080B500AF354B1B78DBB21A00082313409E
S3152000002060D0334B1A68324B08210A431A602F4B93
S315200000301B78DBB21A000123134015D02D4B1B78F9
S31520000040DBB22C4A10210B43DBB21370294B1B78F1
S31520000050DBB2284A1F218B43DBB21370264B1B6869
S315200000605A1C254B1A603DE0204B1B78DBB21A0048
S315200000700223134013D01F4B1B78DBB21D4A2021CD
S315200000800B43DBB213701B4B1B78DBB2194A3F21A3
S315200000908B43DBB21370184B00221A6022E0134BFD
S315200000A01B78DBB21A00042313401BD0114B1B789C
S315200000B0DBB2104A40210B43DBB213700D4B1B7889
S315200000C0DBB20C4A7F218B43DBB213700B4B1B78C0
S315200000D0DBB2FF2B03D1094B00221A7002E0074B3B
S315200000E0FF221A70C046BD4680BDC0461010024091
S315200000F0143C014014100240C4010020150C02409B
S3152000010080B500AF1E4B1B681D4B00221A601C4B8E
S315200001101A681B4B1B490A431A601B4B1A681A4B59
S31520000120120C12041A60184B1A68174BAA21C9011F
S315200001300A431A60154B1A68144B15490A401A606F
S31520000140124B1A68114B8021C9010A431A60114BC0
S315200001501A68104B08210A431A600F4B1A680E4B77
S3152000016008210A431A600D4B0D4A1A600D4B1A6876
S315200001700C4B802189000A431A60C046BD4680BDCB
S31520000180000C0240555555550010024008380140D4
S31520000190FF0FFFFF003C0140083C014064C00120E6
S315200001A01100002000E100E080B500AFFFF7A8FFB6
S315200001B0024B1A68024BD2B21A70F9E7C40100202A
S30D200001C0140C024000000000AF
S70520000000DA
