S01600002E2F44656275672F6C61625F325F332E73313919
S315200000000248854600F0D2F9FEE7C04600C001202E
S3152000001080B500AF094B00221A60094B29221A60CD
S31520000020084B00221A60054B05221A60C046034B76
S3152000003000221A60C046BD4680BDC04610E000E0E2
S3152000004014E000E018E000E080B584B000AF7860EE
S315200000500DE00023FB6004E0FFF7DAFFFB680133C5
S31520000060FB60FB68032BF7DD7B68013B7B607B68CD
S31520000070002BEED1C046BD4604B080BD80B582B00F
S3152000008000AF786007E0FA239B001800FFF7DCFF3B
S315200000907B68013B7B607B68002BF4D1C046BD4664
S315200000A002B080BD80B584B000AF0200FB1D1A707F
S315200000B0094A0F217B1812781A707A18FB1D1278BC
S315200000C01B781343DBB2044A04210B43DBB21370C3
S315200000D0C046BD4604B080BD1410024080B584B031
S315200000E000AF0200FB1D1A700C4A0F217B181278F4
S315200000F01A70FB1D1B785BB2DB435BB27A18127851
S3152000010052B213405BB2042213435AB2034BD2B20B
S315200001101A70C046BD4604B080BDC04614100240C9
S3152000012080B582B000AF0200FB1D1A704020FFF799
S31520000130B9FF064AFB1D1B781370FFF769FF4020A5
S31520000140FFF7CCFFC046BD4602B080BD1510024069
S3152000015080B582B000AF0200FB1D1A700120FFF7A8
S31520000160BDFF0220FFF7BAFFFB1D1B781800FFF723
S31520000170D7FFC046BD4602B080BD80B582B000AF75
S315200001800200FB1D1A700120FFF78CFF0220FFF7EB
S31520000190A5FFFB1D1B781800FFF7C2FFC046BD4612
S315200001A002B080BD80B582B000AF4020FFF77AFF55
S315200001B0FFF72EFFFFF72CFF064AFB1D12781A7059
S315200001C04020FFF78BFFFB1D1B781800BD4602B0B1
S315200001D080BDC0461510024090B583B000AF0E4BCF
S315200001E01A680D4B1204120C1A600120FFF776FFD5
S315200001F00220FFF757FFFC1DFFF7D4FF03002370F3
S31520000200054B1A68044B05490A431A60C046180074
S31520000210BD4603B090BDC0460010024000005555B3
S3152000022090B583B000AF0E4B1A680D4B1204120C1A
S315200002301A600120FFF736FF0220FFF733FFFC1D6F
S31520000240FFF7B0FF03002370054B1A68044B0549DE
S315200002500A431A60C0461800BD4603B090BDC0468A
S31520000260001002400000555580B500AFC046FFF78C
S31520000270B3FF03001A0080231340802BF7D00820F9
S31520000280FFF7E2FE3820FFF763FF2820FFF7DCFEAA
S31520000290C046FFF7A1FF03001A0080231340802BDE
S315200002A0F7D00820FFF7D0FE0E20FFF751FF2820B9
S315200002B0FFF7CAFEC046FFF78FFF03001A00802310
S315200002C01340802BF7D00820FFF7BEFE0120FFF752
S315200002D03FFF0220FFF7B8FEC046FFF77DFF030071
S315200002E01A0080231340802BF7D00820FFF7ACFE9E
S315200002F00620FFF72DFF2820FFF7A6FEC046BD46A5
S3152000030080BD80B584B000AF786039607B68013BE2
S31520000310FB603B68022B02D1FB684033FB60FB6825
S315200003205BB28022524213435BB2DBB21800FFF766
S315200003300FFFC046BD4604B080BD80B582B000AF79
S315200003400200FB1D1A70C046FFF746FF03001A0085
S3152000035080231340802BF7D00820FFF775FEFB1D66
S315200003601B781800FFF709FF2D20FFF76DFEC0460A
S31520000370BD4602B080BD80B500AF094B18221A6079
S3152000038031488047074B1B68064B00221A60054BF5
S315200003901A68044B04490A431A60C046BD4680BD0C
S315200003A030380240001002405555555590B587B05B
S315200003B000AF786039600C243B19214A1168196016
S315200003C012791A710823FB181E4A1A60FFF7D3FF09
S315200003D0FFF74AFF0120FFF751FE01210120FFF719
S315200003E090FF0120FFF74AFE3B197B6106E07B69FF
S315200003F05A1C7A611B781800FFF79FFF7B691B78D0
S31520000400002BF4D10120FFF739FE02210120FFF74E
S3152000041078FF0120FFF732FE0823FB187B6106E0F8
S315200004207B695A1C7A611B781800FFF786FF7B6967
S315200004301B78002BF4D1C046BD4607B090BDC04600
S315200004404C040020313233000902000854657374CD
S309200004500000000082
S70520000000DA
