S01B00002E2F44656275672F666C6970666C6F705F6972712E7331395F
S315200000000248854600F08EF8FEE7C04600C0012073
S3152000001080B500AF114B1B68082213401AD0104B35
S315200000201B685A1C0E4B1A600C4B1A680B4B082186
S315200000300A431A600B4B1B78DBB20A4A10210B438A
S31520000040DBB21370074B1B78DBB2064A1F218B43AA
S31520000050DBB21370C046BD4680BDC046143C01408D
S31520000060400100201410024080B500AF224B1A68D0
S31520000070214B120C12041A601F4B1A681E4B1F4983
S315200000800A431A601E4B1A681D4B120C12041A6082
S315200000901B4B1A681A4BAA21C9010A431A60194B2D
S315200000A01A68184B18490A401A60164B1A68154BDD
S315200000B08021C9010A431A60144B1A68134B082180
S315200000C00A431A60124B1A68114B08210A431A6018
S315200000D0104B1A680F4B08218A431A600E4B0F4AA1
S315200000E01A600F4B1A680E4B802189000A431A604A
S315200000F0C046BD4680BDC046000C02405555000096
S315200001000010024008380140FF0FFFFF003C01406D
S31520000110083C01400C3C014064C001201100002035
S3152000012000E100E080B500AFFFF79EFF024B1A68A2
S31520000130024BD2B21A70F9E740010020140C02409B
S309200001400000000095
S70520000000DA
