S01600002E2F44656275672F6C61625F325F322E7331391A
S315200000000248854600F062F8FEE7C04600C001209F
S3152000001080B500AF054B18221A6038488047044B3C
S31520000020044A1A60C046BD4680BDC04630380240EC
S31520000030001002405555555580B500AF094B00229A
S315200000401A60094B29221A60084B00221A60054BB8
S3152000005005221A60C046034B00221A60C046BD46E0
S3152000006080BDC04610E000E014E000E018E000E0AB
S3152000007080B584B000AF78600DE00023FB6004E01B
S31520000080FFF7DAFFFB680133FB60FB68032BF7DD24
S315200000907B68013B7B607B68002BEED1C046BD466A
S315200000A004B080BD80B582B000AF786007E0FA2347
S315200000B09B001800FFF7DCFF7B68013B7B607B68B9
S315200000C0002BF4D1C046BD4602B080BD80B500AF3E
S315200000D0FFF79EFF084B00221A70FA235B001800D8
S315200000E0FFF7E0FF044BFF221A70FA235B0018008B
S315200000F0FFF7D8FFEEE7C0461410024009020008B9
S70520000000DA
