S01B00002E2F44656275672F6173636969646973706C61792E73313967
S315200000000248854600F0DBF9FEE7C04600C0012025
S3152000001080B500AF064B1B68054B00221A60044BC7
S315200000201A68034B03490A431A60C046BD4680BD81
S31520000030001002405555555580B500AF094B00229A
S315200000401A60094B29221A60084B00221A60054BB8
S3152000005005221A60C046034B00221A60C046BD46E0
S3152000006080BDC04610E000E014E000E018E000E0AB
S3152000007080B584B000AF78607B68FA2291001800C2
S3152000008000F0DEF903007B607B6801337B600BE0C8
S315200000900023FB6002E0FB680133FB60FB68032B57
S315200000A0F9DD7B68013B7B607B68002BF0D1C04685
S315200000B0C046BD4604B080BD80B582B000AF786032
S315200000C07B68FA229100180000F0BAF903007B60E1
S315200000D07B6801337B6007E0FA239B001800FFF75B
S315200000E0C7FF7B68013B7B607B68002BF4D1C04651
S315200000F0C046BD4602B080BD80B584B000AF0200C8
S31520000100FB1D1A70094A0F217B1812781A707A186B
S31520000110FB1D12781B781343DBB2044A04210B43E0
S31520000120DBB21370C046BD4604B080BD1410024039
S3152000013080B584B000AF0200FB1D1A700C4A0F2157
S315200001407B1812781A70FB1D1B785BB2DB435BB2FF
S315200001507A18127852B213405BB2042213435AB271
S31520000160034BD2B21A70C046BD4604B080BDC0460D
S315200001701410024080B582B000AF0200FB1D1A7039
S315200001804020FFF7B9FF054AFB1D1B78137040205E
S31520000190FFF7CEFFC046BD4602B080BD1510024017
S315200001A080B582B000AF0200FB1D1A700120FFF758
S315200001B0BFFF0220FFF7BCFFFB1D1B781800FFF7CF
S315200001C0D9FFC046BD4602B080BD80B582B000AF23
S315200001D00200FB1D1A700120FFF78EFF0220FFF799
S315200001E0A7FFFB1D1B781800FFF7C4FFC046BD46BE
S315200001F002B080BD80B582B000AF4020FFF77CFF03
S31520000200064AFB1D12781A704020FFF791FFFB1D4E
S315200002101B781800BD4602B080BDC04615100240AE
S3152000022090B583B000AF0E4B1A680D4B1204120C1A
S315200002301A600120FFF77CFF0220FFF75DFFFC1DFF
S31520000240FFF7D8FF03002370054B1A68044B0549B6
S315200002500A431A60C0461800BD4603B090BDC0468A
S31520000260001002400000555590B583B000AF0E4BEC
S315200002701A680D4B1204120C1A600120FFF73CFF7E
S315200002800220FFF739FFFC1DFFF7B4FF03002370A0
S31520000290054B1A68044B05490A431A60C0461800E4
S315200002A0BD4603B090BDC046001002400000555523
S315200002B080B500AFC046FFF7B3FF03001A008023C6
S315200002C01340802BF7D00820FFF7D2FE0120FFF73E
S315200002D067FF0220FFF7CCFEC046FFF7A1FF030011
S315200002E01A0080231340802BF7D00820FFF7C0FE8A
S315200002F03820FFF755FF2820FFF7BAFEC046FFF744
S315200003008FFF03001A0080231340802BF7D008208C
S31520000310FFF7AEFE0E20FFF743FF2820FFF7A8FECB
S31520000320C046FFF77DFF03001A0080231340802B71
S31520000330F7D00820FFF79CFE0620FFF731FF282084
S31520000340FFF796FEC046BD4680BD80B584B000AF9F
S31520000350786039607B68013BFB603B68022B02D1E9
S31520000360FB684033FB60FB685BB28022524213433A
S315200003705BB2DBB21800FFF713FFC046BD4604B0E0
S3152000038080BD80B582B000AF0200FB1D1A70C0464A
S31520000390FFF746FF03001A0080231340802BF7D077
S315200003A00820FFF765FEFB1D1B781800FFF70DFFE1
S315200003B02D20FFF75DFEC046BD4602B080BDB0B51C
S315200003C08AB000AF14243B191B4A23CA23C31278D0
S315200003D01A703B1D194A23CA23C312781A70FFF7D5
S315200003E017FEFFF765FF01210120FFF7AEFF3B193E
S315200003F07B6206E07B6A5A1C7A621B781800FFF73C
S31520000400C0FF7B6A1B78002BF4D102210120FFF765
S315200004109CFF3B1D7B6206E07B6A5A1C7A621B7836
S315200004201800FFF7AEFF7B6A1B78002BF4D1C0467D
S31520000430BD460AB0B0BDC04658050020680500205C
S31520000440002243088B4274D303098B425FD3030AED
S315200004508B4244D3030B8B4228D3030C8B420DD300
S31520000460FF22090212BA030C8B4202D3121209028E
S3152000047065D0030B8B4219D300E0090AC30B8B42CC
S3152000048001D3CB03C01A5241830B8B4201D38B037A
S31520000490C01A5241430B8B4201D34B03C01A52411F
S315200004A0030B8B4201D30B03C01A5241C30A8B4262
S315200004B001D3CB02C01A5241830A8B4201D38B024D
S315200004C0C01A5241430A8B4201D34B02C01A5241F1
S315200004D0030A8B4201D30B02C01A5241CDD2C30963
S315200004E08B4201D3CB01C01A524183098B4201D3DF
S315200004F08B01C01A524143098B4201D34B01C01ACA
S31520000500524103098B4201D30B01C01A5241C30841
S315200005108B4201D3CB00C01A524183088B4201D3B0
S315200005208B00C01A524143088B4201D34B00C01A9C
S315200005305241411A00D20146524110467047FFE708
S3152000054001B5002000F006F802BDC0460029F7D00C
S3152000055076E770477047C046416C66616E756D657B
S315200005607269736B00000000446973706C61792DA9
S30D2000057074657374000000009D
S70520000000DA
