S01700002E2F44656275672F6175746F706F6E672E733139FD
S315200000000248854600F0E4FBFEE7C04600C001201A
S3152000001080B584B000AFF860B9607A60FB68BA68D2
S315200000205A60FB687A689A60C046BD4604B080BDB7
S3152000003090B585B000AF78600023FB6028E07B6830
S31520000040DB68D9B27B681A68FB6804335B00D31877
S3152000005004331A780B203B188A181A707B681B69A0
S31520000060D9B27B681A68FB6804335B00D318053362
S315200000701A780A243B198A181A703B1818783B19E3
S315200000801B780122190000F0D9FAFB680133FB60C6
S31520000090FB68132BD3DDC046C046BD4605B090BDD8
S315200000A090B585B000AF78600023FB6028E07B68C0
S315200000B0DB68D9B27B681A68FB6804335B00D31807
S315200000C004331A780B203B188A181A707B681B6930
S315200000D0D9B27B681A68FB6804335B00D3180533F2
S315200000E01A780A243B198A181A703B1818783B1973
S315200000F01B780022190000F0A1FAFB680133FB608F
S31520000100FB68132BD3DDC046C046BD4605B090BD67
S3152000011080B582B000AF78607B681800FFF7C0FF1B
S315200001207B68DA687B685B68D2187B68DA607B68F4
S315200001301A697B689B68D2187B681A617B68DB68C2
S31520000140002B05DC7B685B685A427B685A601CE0A2
S315200001507B68DB68802B05DD7B685B685A427B68A1
S315200001605A6012E07B681B69002B05DC7B689B6864
S315200001705A427B689A6008E07B681B69402B04DD45
S315200001807B689B685A427B689A607B681800FFF7F9
S315200001904FFFC046BD4602B080BD80B500AF094BBB
S315200001A000221A60084B29221A60084B00221A6086
S315200001B0044B05221A60C046024B00221A60C04634
S315200001C0BD4680BD10E000E014E000E018E000E04D
S315200001D080B500AF094B00221A60094B53221A60E2
S315200001E0084B00221A60054B05221A60C046034BB5
S315200001F000221A60C046BD4680BDC04610E000E021
S3152000020014E000E018E000E080B584B000AF78602C
S315200002107B68FA229100180000F0F4FA03007B6054
S315200002207B6801337B600DE00023FB6004E0FFF771
S31520000230B4FFFB680133FB60FB68032BF7DD7B68AB
S31520000240013B7B607B68002BEED1C046C046BD4695
S3152000025004B080BD80B582B000AF78607B68FA229A
S315200002609100180000F0CEFA03007B607B68013312
S315200002707B6007E0FA239B001800FFF7C5FF7B6829
S31520000280013B7B607B68002BF4D1C046C046BD464F
S3152000029002B080BD80B584B000AF0200FB1D1A708D
S315200002A00F4A0F203B1812781A703B183A1812780A
S315200002B004218A431A70FB1D1B785BB204229343E8
S315200002C05AB23B181B785BB213435AB23B181A70CA
S315200002D0034A3B181B781370C046BD4604B080BD48
S315200002E01410024080B584B000AF0200FB1D1A70C6
S315200002F00F4A0F203B1812781A703B183A181278BA
S3152000030004218A431A70FB1D1B785BB2DB435BB268
S315200003103A18127852B213405AB23B181A70044A4D
S315200003203B181B781370C046BD4604B080BDC0463E
S315200003301410024080B582B000AF78607B68182B1D
S3152000034021D07B68182B22DC7B68102B14D07B688D
S31520000350102B1CDC7B68002B03D07B68082B04D079
S3152000036015E01820FFF7BEFF11E01020FFF7BAFFB7
S315200003700820FFF78FFF0AE00820FFF7B3FF1020C1
S31520000380FFF788FF03E01820FFF784FFC046C0462A
S31520000390BD4602B080BD80B500AF4020FFF77AFF92
S315200003A0124B134A1A600120FFF79CFF0220FFF729
S315200003B071FFFFF70DFF4020FFF76CFFFFF708FFE7
S315200003C04020FFF78FFFFFF703FF0A4B1B78DBB2B6
S315200003D05BB2002B00DAEEE7C0464020FFF75AFF5B
S315200003E0024B054A1A60C046BD4680BD0010024039
S315200003F055550000141002405555555580B584B00A
S3152000040000AF0200FB1D1A704020FFF76BFF1C4B4C
S315200004101C4A1A600320FFF73DFFFB1D1B781800BE
S31520000420FFF788FFFFF7D4FE4020FFF733FFFFF7E3
S31520000430CFFE154A0F23FB1812781A704020FFF7BB
S3152000044051FF0F4B114A1A60FB1D1B7808221340DF
S3152000045005D00820FFF76EFFFFF79DFF09E0FB1D83
S315200004601B781022134004D01020FFF763FFFFF7FC
S3152000047092FF0F23FB181B781800BD4604B080BDE1
S315200004800010024055550000111002405555555593
S3152000049080B582B000AF0200FB1D1A70BB1D0A1C7E
S315200004A01A701A4AFB1D1B781370BB1D1B78180087
S315200004B0FFF740FFFFF78CFE4020FFF7EBFEFFF72C
S315200004C087FE4020FFF70EFFBB1D1B780822134036
S315200004D005D00820FFF72EFFFFF75DFF09E0BB1DC3
S315200004E01B781022134004D01020FFF723FFFFF7BC
S315200004F052FF064B00221A704020FFF7CBFE002049
S31520000500FFF718FFC046BD4602B080BD1510024059
S3152000051080B582B000AF0200FB1D1A70BB1D0A1CFD
S315200005201A704020FFF7DEFEBB1D1B781800FFF770
S3152000053001FF0320FFF7D6FEBB1D1A78FB1D1B7893
S3152000054011001800FFF7A4FFC046BD4602B080BDCB
S3152000055080B582B000AF0200FB1D1A70BB1D0A1CBD
S315200005601A704020FFF7BEFEBB1D1B781800FFF750
S31520000570E1FE0120FFF78EFE0220FFF7B3FEBB1D32
S315200005801A78FB1D1B7811001800FFF781FFC04663
S31520000590BD4602B080BD80B582B000AF0200FB1D13
S315200005A01A70FB1D1B781800FFF728FFFB1D1B7810
S315200005B01800FFF723FF03001800BD4602B080BDD8
S315200005C080B500AF4020FFF765FE0A20FFF71CFE2E
S315200005D00820FFF787FE1020FFF784FE2020FFF774
S315200005E081FE4020FFF77EFE1E20FFF733FE2020EF
S315200005F0FFF750FE18213E20FFF78AFF18213F20E3
S31520000600FFF786FF1821C020FFF782FF1821402020
S31520000610FFF77EFF1821B820FFF77AFF0020FFF7AB
S3152000062089FEC046BD4680BD80B582B000AF00239E
S315200006307B60C046C046BD4602B080BDF0B587B0DF
S3152000064000AF040008001100FB1D221C1A70BB1D00
S31520000650021C1A707B1D0A1C1A70FB1D1B78002BAE
S3152000066000D19AE0BB1D1B78002B00D195E0FB1D25
S315200006701B78802B00D990E0BB1D1B78402B00D91E
S315200006808BE0BB1D1B78013B002B00DA0733DB1008
S315200006903B61BB1D1B78013B424A134004D5013BFD
S315200006A008225242134301331A00012393401A00B1
S315200006B017217B181A707B1D1B78002B04D17B1801
S315200006C07A181278D2431A70FB1D1B78402B0AD950
S315200006D01623FB1810221A701523FB18FA1D127800
S315200006E0413A1A7009E01623FB1808221A701523BE
S315200006F0FB18FA1D1278013A1A701526BB191B78B9
S3152000070040221343DAB216257B191B7819001000F4
S31520000710FFF7FEFE3B695BB24822524213435BB2AF
S31520000720DAB27B191B7819001000FFF7F1FE0F23B0
S31520000730FC187B191B781800FFF72DFF0300237088
S31520000740BB191B7840221343DAB27B191B78190098
S315200007501000FFF7DDFE7B1D1B78012B09D1172129
S315200007607B1879180F22BA18097812780A431A705A
S3152000077008E01722BB18BA180F21791812780978C1
S315200007800A401A701623FB181A781723FB181B78B1
S3152000079011001800FFF7DCFE00E0C046BD4607B09A
S315200007A0F0BDC0460700008080B500AF064B1B6831
S315200007B0054B00221A60044B1A68034B03490A436F
S315200007C01A60C046BD4680BD00100240555555559D
S315200007D080B582B000AF0A4B7B60FFF7E5FFFFF7DD
S315200007E0EFFE7B681B6A78680A220A2198477B6895
S315200007F0DB697A68100098470420FFF72BFDF6E79F
S3152000080050090020002243088B4274D303098B42EF
S315200008105FD3030A8B4244D3030B8B4228D3030CAA
S315200008208B420DD3FF22090212BA030C8B4202D34C
S315200008301212090265D0030B8B4219D300E0090A74
S31520000840C30B8B4201D3CB03C01A5241830B8B427D
S3152000085001D38B03C01A5241430B8B4201D34B0366
S31520000860C01A5241030B8B4201D30B03C01A5241CB
S31520000870C30A8B4201D3CB02C01A5241830A8B4250
S3152000088001D38B02C01A5241430A8B4201D34B0239
S31520000890C01A5241030A8B4201D30B02C01A52419D
S315200008A0CDD2C3098B4201D3CB01C01A5241830951
S315200008B08B4201D38B01C01A524143098B4201D38B
S315200008C04B01C01A524103098B4201D30B01C01AB6
S315200008D05241C3088B4201D3CB00C01A5241830830
S315200008E08B4201D38B00C01A524143088B4201D35D
S315200008F04B00C01A5241411A00D2014652411046BD
S315200009007047FFE701B5002000F006F802BDC0469B
S315200009100029F7D076E770477047C0460C000000E4
S315200009200400000004000000000100020100010193
S315200009300102010302000201020202030301030273
S315200009400000000000000000000000000000000081
S315200009501C0900200000000000000000010000002B
S315200009600100000031000020A1000020110100201C
S30920000970110000202C
S70520000000DA
