S01500002E2F44656275672F6B65797061642E733139EE
S315200000000248854600F0DEF8FEE7C04600C0012023
S3152000001080B500AF114B1B68104B00221A60104BA5
S315200000201B889BB20E4AFF210B409BB213800D4BBF
S315200000301A680C4B1204120C1A60084B1A68074BEC
S3152000004009490A431A60074B1A68064BAA21090672
S315200000500A431A60C046BD4680BDC046000C024019
S31520000060040C02400C0C02405555005580B582B058
S3152000007000AF78607B68042B19D87B689A000E4BFA
S31520000080D3181B689F460D4B10221A700FE00B4B9E
S3152000009020221A700BE0094B40221A7007E0074B0A
S315200000A080221A7003E0054B00221A70C046C04613
S315200000B0BD4602B080BDC046DC010020150C0240C2
S315200000C080B582B000AF124AFB1D12781A70FB1D54
S315200000D01B780822134001D0042315E0FB1D1B7852
S315200000E00422134001D003230EE0FB1D1B780222BD
S315200000F0134001D0022307E0FB1D1B780122134089
S3152000010001D0012300E000231800BD4602B080BDC7
S31520000110110C024090B587B000AF3B00164A13CAB7
S3152000012013C312681A6001237B6119E07B691800EA
S31520000130FFF79CFFFFF7C4FF03003B613B69002BE1
S315200001400BD00020FFF792FF7B69013B9A003B69A9
S31520000150013BD3183A00D35C09E07B6901337B610C
S315200001607B69042BE2DD0020FFF780FFFF231800C8
S31520000170BD4607B090BDC046F0010020B0B586B0A0
S3152000018000AF0200FB1D1A7008203B180B4A32CA2A
S3152000019032C312681A60FB1D1B780F2B06D8FB1D75
S315200001A01B7807493A18D35C0B7002E0044B0022F7
S315200001B01A70C046BD4606B0B0BDC046000200203B
S315200001C0140C024080B500AFFFF722FFFFF7A2FF15
S315200001D003001800FFF7D2FFF8E7C046A60000206C
S315200001E0860000208E000020960000209E00002021
S315200001F00102030A0405060B0708090C0E000F0D61
S315200002003F065B4F666D7D077F6F777C0F5E79714A
S70520000000DA
