S02400002E2F44656275672F666C6970666C6F705F6972715F766563746F7265642E7331399B
S315200000000248854600F010F9FEE7C04600C00120F0
S3152000001080B500AF114B1B68012213401AD0104B3C
S315200000201B78DBB20E4A10210B43DBB213700C4B4C
S315200000301B78DBB20A4A10218B43DBB21370074BC5
S315200000401A68064B01210A431A60064B1B685A1C84
S31520000050044B1A60C046BD4680BDC046143C0140D4
S31520000060141002404402002080B500AF104B1B68DC
S315200000700222134018D00F4B1B78DBB20D4A2021E9
S315200000800B43DBB213700B4B1B78DBB2094A2021E2
S315200000908B43DBB21370064B1A68054B02210A43C9
S315200000A01A60054B00221A60C046BD4680BDC04678
S315200000B0143C0140141002404402002080B500AFD9
S315200000C0144B1B680422134020D0134B1B78DBB241
S315200000D0114A40210B43DBB213700F4B1B78DBB266
S315200000E00D4A40218B43DBB213700A4B1A68094B29
S315200000F004210A431A60094B1B68FF2B03D1074BC7
S3152000010000221A6002E0054BFF221A60C046BD4657
S3152000011080BDC046143C0140141002404402002019
S3152000012080B500AF304B1B682F4B00221A602E4B38
S315200001301A682D4B2D490A431A602D4B1A682C4BF1
S31520000140120C12041A602A4B1A68294BAA21C901DB
S315200001500A431A60274B00221A60274B00221A8076
S31520000160264B1A68254B0F218A431A60234B1A689F
S31520000170224B04210A431A60204B1A681F4BF02198
S315200001808A431A601D4B1A681C4B40210A431A6089
S315200001901A4B1A68194B1A490A401A60174B1A68E3
S315200001A0164B8021C9000A431A60164B1A68154B54
S315200001B007210A431A60144B1A68134B07210A4376
S315200001C01A60124B124A1A60124B134A1A60134BCA
S315200001D0134A1A60134B1A68124BE02149000A434E
S315200001E01A60C046BD4680BD000C02405555555587
S315200001F0001002400C100240041002400838014052
S31520000200FFF0FFFF003C0140083C014060C0012098
S31520000210BD0000205CC001206900002058C00120DC
S315200002201100002000E100E080B500AFFFF778FF65
S31520000230024B1A68024BD2B21A70F9E74402002028
S30D20000240140C0240000000002E
S70520000000DA
