S01400002E2F44656275672F6C616232322E733139DA
S315200000000248854600F0E4F8FEE7C04600C001201D
S3152000001080B500AF134B18221A60134B1968124B88
S31520000020FF2212040A401A60104B1B889BB20F4A0B
S31520000030FF210B409BB213800D4B1A680C4B120408
S31520000040120C1A60084B1A68074B0A490A431A60B1
S31520000050074B1A68064BAA2109060A431A60C046AE
S31520000060BD4680BD30380240000C0240040C0240E0
S315200000700C0C02405555005580B582B000AF786013
S315200000807B68042B19D87B689A000E4BD3181B6803
S315200000909F460D4B10221A700FE00B4B20221A7030
S315200000A00BE0094B40221A7007E0074B80221A709A
S315200000B003E0054B00221A70C046C046BD4602B07A
S315200000C080BDC046F0010020150C024080B582B0EC
S315200000D000AF124AFB1D12781A70FB1D1B780822EE
S315200000E0134001D0042315E0FB1D1B780422134086
S315200000F001D003230EE0FB1D1B780222134001D002
S31520000100022307E0FB1D1B780122134001D00123A7
S3152000011000E000231800BD4602B080BD110C02404D
S3152000012090B587B000AF3B00164A13CA13C31268B6
S315200001301A6001237B6119E07B691800FFF79CFF99
S31520000140FFF7C4FF03003B613B69002B0BD0002067
S31520000150FFF792FF7B69013B9A003B69013BD3186D
S315200001603A00D35C09E07B6901337B617B69042B10
S31520000170E2DD0020FFF780FFFF231800BD4607B011
S3152000018090BDC0460402002090B587B000AF0200A3
S31520000190FB1D1A700823FB180B4A13CA13C31268D7
S315200001A01A60FB1D1B780F2B07D8FB1D1B780749F0
S315200001B00822BA18D35C0B7002E0044B00221A7096
S315200001C0C046BD4607B090BD14020020140C024064
S315200001D090B583B000AFFFF71BFFFC1DFFF7A0FF14
S315200001E003002370FB1D1B781800FFF7CDFFF4E7F3
S315200001F0B2000020920000209A000020A2000020D9
S31520000200AA0000200102030A0405060B0708090CB0
S315200002100E000F0D3F065B4F666D7D077F6F777C67
S309200002200F5E79715D
S70520000000DA
